{
  "contractName": "TaskStore",
  "abi": [
    {
      "constant": true,
      "inputs": [],
      "name": "storedTask",
      "outputs": [
        {
          "internalType": "string",
          "name": "",
          "type": "string"
        }
      ],
      "payable": false,
      "stateMutability": "view",
      "type": "function"
    },
    {
      "constant": false,
      "inputs": [
        {
          "internalType": "string",
          "name": "x",
          "type": "string"
        }
      ],
      "name": "updateTask",
      "outputs": [],
      "payable": false,
      "stateMutability": "nonpayable",
      "type": "function"
    },
    {
      "constant": true,
      "inputs": [],
      "name": "readTask",
      "outputs": [
        {
          "internalType": "string",
          "name": "",
          "type": "string"
        }
      ],
      "payable": false,
      "stateMutability": "view",
      "type": "function"
    }
  ],
  "bytecode": "0x608060405234801561001057600080fd5b506103f5806100206000396000f3fe608060405234801561001057600080fd5b50600436106100415760003560e01c806304a14979146100465780637612b70d146100bf5780639b36037b14610142575b600080fd5b6100bd6004803603602081101561005c57600080fd5b810190808035906020019064010000000081111561007957600080fd5b82018360208201111561008b57600080fd5b803590602001918460018302840111640100000000831117156100ad57600080fd5b90919293919293905050506101c5565b005b6100c76101db565b6040518080602001828103825283818151815260200191508051906020019080838360005b838110156101075780820151818401526020810190506100ec565b50505050905090810190601f1680156101345780820380516001836020036101000a031916815260200191505b509250505060405180910390f35b61014a610279565b6040518080602001828103825283818151815260200191508051906020019080838360005b8381101561018a57808201518184015260208101905061016f565b50505050905090810190601f1680156101b75780820380516001836020036101000a031916815260200191505b509250505060405180910390f35b8181600091906101d692919061031b565b505050565b60008054600181600116156101000203166002900480601f0160208091040260200160405190810160405280929190818152602001828054600181600116156101000203166002900480156102715780601f1061024657610100808354040283529160200191610271565b820191906000526020600020905b81548152906001019060200180831161025457829003601f168201915b505050505081565b606060008054600181600116156101000203166002900480601f0160208091040260200160405190810160405280929190818152602001828054600181600116156101000203166002900480156103115780601f106102e657610100808354040283529160200191610311565b820191906000526020600020905b8154815290600101906020018083116102f457829003601f168201915b5050505050905090565b828054600181600116156101000203166002900490600052602060002090601f016020900481019282601f1061035c57803560ff191683800117855561038a565b8280016001018555821561038a579182015b8281111561038957823582559160200191906001019061036e565b5b509050610397919061039b565b5090565b6103bd91905b808211156103b95760008160009055506001016103a1565b5090565b9056fea265627a7a723158203def9b6a9d81952ebd8c1b530a2b53e0f5d224a87e1492a7f2df24b91ad7994d64736f6c63430005100032",
  "source": "// SPDX-License-Identifier: MIT\npragma solidity >= 0.5.0;\n\ncontract TaskStore {\n    string public storedTask;\n\n    function updateTask(string calldata x) external {\n        storedTask = x;\n    }\n\n    function readTask( ) view public returns (string memory) {\n        return storedTask;\n    }\n\n}",
  "sourcePath": "/Users/akrsriv/code/dapps/bsc-testnet/task-store/contracts/TaskStore.sol",
  "compiler": {
    "name": "solc",
    "version": "0.5.16+commit.9c3226ce.Emscripten.clang"
  },
  "schemaVersion": "3.4.2",
  "updatedAt": "2021-08-24T16:53:52.408Z",
  "networkType": "ethereum",
  "devdoc": {
    "methods": {}
  },
  "userdoc": {
    "methods": {}
  }
}